:020000040800F2
:1000000088C600202D020008E34D00083D130008BB
:10001000E14D00087D0A000825710008000000007D
:100020000000000000000000000000001B6A000843
:100030005B0D000800000000FF5000082F6C000856
:10004000470200084702000847020008470200086C
:1000500047020008470200085D0D0008470200083B
:10006000950D0008CD0D0008050E00084702000898
:10007000470200084702000847020008470200083C
:10008000470200084702000847020008470200082C
:10009000470200084702000847020008810E0008D6
:1000A000470200084702000847020008470200080C
:1000B00047020008816C0008B56C00084702000880
:1000C00047020008470200084702000847020008EC
:1000D00047020008896F000847020008470200082D
:1000E00047020008470200084702000847020008CC
:1000F00047020008470200084702000847020008BC
:1001000047020008C1550008F16C000847020008CA
:100110004702000847020008796D000847020008FE
:10012000470200084702000847020008470200088B
:1001300000F002F800F06BF80AA090E8000C82448E
:100140008344AAF10107DA4501D100F060F8AFF26B
:10015000090EBAE80F0013F0010F18BFFB1A43F0A5
:1001600001031847ECF600000CF700000A444FF0BA
:10017000000C10F8013B13F0070408BF10F8014B06
:100180001D1108BF10F8015B641E05D010F8016B4B
:10019000641E01F8016BF9D113F0080F1EBF10F8AF
:1001A000014BAD1C0C1B09D16D1E58BF01F801CBD2
:1001B000FAD505E014F8016B01F8016B6D1EF9D555
:1001C0009142D6D37047000000230024002500266A
:1001D000103A28BF78C1FBD8520728BF30C148BFAA
:1001E0000B607047642900F0D780752900F0D48037
:1001F000782900F00D81632900F09F83732900F0B6
:10020000A483002070471FB51FBD10B510BD00F0BE
:10021000E9FB1146FFF7F7FF0AF0F4FA00F007FCDC
:1002200003B4FFF7F2FF03BC07F0E9F80948804781
:1002300009480047FEE7FEE7FEE7FEE7FEE7FEE7C8
:10024000FEE7FEE7FEE7FEE704480549054A064BE0
:1002500070470000316C00083101000888C00020A0
:1002600088C6002088C2002088C20020704710B5D0
:100270004C1084EA530404D54042C1F1000138BF58
:10028000491E1B4204D55242C3F1000338BF5B1E16
:1002900000F05CFA14F0804F04D04042C1F100013C
:1002A00038BF491E14F0004F04D05242C3F100037E
:1002B00038BF5B1E10BD00000FB4044910B503AA7F
:1002C000029800F047FB10BC5DF814FB38000020DA
:1002D0000FB41CB5074B06AA7B44694600900598ED
:1002E00000F009FB0020694600F018FB1CBC5DF81B
:1002F00014FB00004106000070B5044685690068E3
:10030000C10601D5302600E02026C00707D070BD09
:10031000D4E9012130469047206A401C20626D1EBE
:10032000F6D570BD70B5044685690078C00707D161
:1003300070BDD4E9012120209047206A401C206232
:100340006D1EF6D570BD70B50C460546012A05D068
:100350002878800600D5EA69002302E0012305E041
:100360005B1C934202D2E05C0028F9D1A869E61830
:10037000C01AA861286A184428622846FFF7BCFF03
:1003800004E0D5E9012114F8010B9047B442F8D3F9
:100390002846FFF7C7FF70BD2DE9F041064600244F
:1003A00010687529314616A510D0AFF300800028DB
:1003B00002DA404213A507E031688A0701D512A589
:1003C00002E0490704D511A5012401E0AFF3008044
:1003D00000210A2206F1240709E0B0FBF2FCB0FB81
:1003E000F2F302FB1C00303078541846491C0028F8
:1003F000F3D123462A463046BDE8F04100F01DBA4D
:10040000000000002D0000002B0000002000000074
:1004100070B504460D4621461068AFF30080218870
:10042000090502D50F4A7A4402E00E4A7A440E3298
:10043000002104F1240305E000F00F060009965D99
:100440005E54491C0028F7D120780023000704D50A
:10045000702D02D009B1022311322046BDE8704050
:1004600000F0EBB91AF200002DE9F05F894604466E
:100470004FF0000ADFF874B1FB44C0F820A020461A
:10048000E1688847002874D0252806D0D4E90121E6
:100490009047206A401C2062F1E700265F46204614
:1004A000E16888472028054607DB312D05D27819F9
:1004B00010F8200C08B10643F1E7B00701D526F08B
:1004C0000406C4F81CA00027C4F818A02A2D09D0DF
:1004D000284606F08DFF38B304EB8708303DC8F896
:1004E000185019E059F8041B204604EB870291616B
:1004F000E1688847012F054618D1E069002820DA15
:1005000026F020061DE0D8F8180000EB800005EB6F
:1005100040003038C8F818002046E1688847054692
:1005200006F066FF0028EED1012F0AD02E2D08D14B
:100530002046E16888477F1C0546022F46F02006CA
:10054000C4DBA069002803DA404246F00106A0613E
:10055000F00701D026F010066C2D0BD0682D09D0C5
:100560004C2D39D06A2D35D0742D35D07A2D33D01D
:1005700016E038E0E1682F4620468847B842054635
:1005800009D16C2F26D04FF48060E16806432046E5
:100590008847054604E06C2F1AD04FF4807006435C
:1005A0000DB3A5F14100192802D8203546F40066A4
:1005B0004A462946204626604E46FFF713FE80B184
:1005C00001280BD0F61D26F0070000F1080956E7B8
:1005D0004020E4E78020D8E70020D6E706F10409B0
:1005E0004DE7284652E7206ABDE8F09FF0F1000091
:1005F00040EA0103024630B59B0710D14FF00134A9
:1006000000E008C208C91D1B9D4315EAC41FF8D0AD
:1006100013F0FF0102F8011B0DD01B0AF8E711F8D7
:10062000013B002B02F8013B05D011F8013B002BE8
:1006300002F8013BF3D130BD032A40F2308010F0C4
:10064000030C00F0158011F8013BBCF1020F62446D
:1006500098BF11F801CB00F8013B38BF11F8013BFE
:10066000A2F1040298BF00F801CB38BF00F8013BAB
:1006700011F0030300F08081083AC0F0088051F8BF
:10068000043B083A51F804CBA0E80810F5E7121D26
:100690005CBF51F8043B40F8043BAFF30080D20745
:1006A00024BF11F8013B11F801CB48BF11F8012B11
:1006B00024BF00F8013B00F801CB48BF00F8012B34
:1006C000704700004FF0013C50F8042B51F8043BF8
:1006D0009A4221D1A2EB0C03934313EACC1317D116
:1006E00050F8042B51F8043B9A4215D1A2EB0C03AD
:1006F000934313EACC130BD150F8042B51F8043B6D
:100700009A4209D1A2EB0C03934313EACC13DBD03A
:100710004FF00000704700BFD01A01BAB1FA81F162
:1007200001F0180122FA01F0CB40C1F12001DBB247
:10073000C0B2C01A2CFA01F3D11A914311EAC311C5
:10074000E6D17047704770477047704753EA020C14
:1007500000F069802DE9F04B4FF00006002B1FBF21
:10076000B3FA83F503FA05F424FA05F65E4012BFE6
:100770001643B2FA82F502FA05F4C5F120051EBF50
:1007800022FA05FC44EA0C04203556EA044C4FEAF0
:10079000144418BF641C4FF000084FF00009904249
:1007A00071EB030C39D3002919BFB1FA81F701FAB3
:1007B00007F6B0FA80F700FA07F6C7F120071EBF68
:1007C00020FA07FC46EA0C062037B6FBF4FCA7EB40
:1007D0000507103F07F01F0BCBF120060CFA0BFBAF
:1007E0002CFA06F644BFB3460026202FA4BF5E466F
:1007F0004FF0000B5BEA060C08BF4FF0010B19EB42
:100800000B09ABFB027C48EB0608C01B06FB02CCC5
:100810000BFB03CC71EB0C01C1E70B4602464146D2
:100820004846BDE8F08B13B54FF000004FF00001D3
:10083000AFF30080BDE81C4070472DE9F0470D463E
:1008400099469246044600F124080168880604D5BA
:10085000E06921F01001216000E00120A84201DDE3
:10086000471B00E00027A1697A1902EB0900081A6A
:10087000A0612078C00602D42046FFF73DFD002687
:1008800008E0D4E901211AF806009047206A401CCC
:10089000761C20624E45F4DB2078C0060AD520463F
:1008A000FFF72AFD06E0D4E9012130209047206AB5
:1008B000401C2062381EA7F10107F4DC07E0D4E9F0
:1008C000012118F805009047206A401C2062281E6C
:1008D000A5F10105F3DC2046FFF724FD2078000692
:1008E00002D50220BDE8F0870120FBE701694A1C20
:1008F00002610878704700B58FB0CDE90131002161
:10090000059105497944CDE9031011466846FFF782
:10091000ABFD0FB000BD0000E5FFFFFF0A6802F865
:10092000010B0A60704710B5436913B1AFF3008043
:1009300001E0FFF708FD012010BD127800F124014D
:100940000A7000224A700122EDE711684FF0FF3271
:10095000E9E70000074B70B50D467B44FFF7CBFF7E
:100960000446284600F03AF810B14FF0FF3070BD51
:10097000204670BDDB8A000010B5203AC0F00B8025
:10098000B1E81850203AA0E81850B1E81850A0E893
:100990001850BFF4F5AF5FEA027C24BFB1E81850ED
:1009A000A0E8185044BF18C918C0BDE810405FEA5D
:1009B000827C24BF51F8043B40F8043B08BF7047D9
:1009C000D20728BF31F8023B48BF11F8012B28BFDE
:1009D00020F8023B48BF00F8012B7047007B00F075
:1009E00080007047754600F02BF8AE46050069465A
:1009F000534620F00700854618B020B5FFF724FCC9
:100A0000BDE820404FF000064FF000074FF000080F
:100A10004FF0000B21F00701AC46ACE8C009ACE890
:100A2000C009ACE8C009ACE8C0098D46704710B5F4
:100A30000446AFF300802046BDE81040FFF7F0BB4E
:100A40000048704724C000200948816941F008012E
:100A500081610848016821F00F010160016841F0DF
:100A60000301016004490020C1F8A00170470000A3
:100A700000100240040C014000802142FEE770B5E6
:100A800000254FF4803405E0802004F087FD08B194
:100A900044B101E0641EF7D240F2FF5004F03AFD89
:100AA000284670BD032070BD70B5124C0546616BC1
:100AB00011F0450FFBD0042004F070FD20B104209C
:100AC00004F028FD032070BD012004F067FD20B173
:100AD000012004F01FFD012070BD2069A84201D053
:100AE000102070BD40F2FF50A063606900F0080064
:100AF00070BD00000080014010B500244FF480312B
:100B00000E4809E0426B12F0450F05D009B15007BD
:100B100005D5032404200CE0491EF3D2F7E7012099
:100B200004F03CFD18B10124204604F0F3FC40F22F
:100B3000FF5004F0EFFC204610BD00000080014093
:100B400010B50A49486B10F0450FFBD0042004F0A3
:100B500025FD20B1042004F0DDFC032010BD40F28F
:100B6000FF5004F0D7FC002010BD000000800140C1
:100B70002DE9F0411B4C0E4607460025606B10F036
:100B8000450FFBD0042004F009FD28B1042004F037
:100B9000C1FC0320BDE8F081012004F0FFFC20B17E
:100BA000012004F0B7FC0120F4E72069B84210D11D
:100BB00040F2FF5004F0AEFC626912F4604F03D0C3
:100BC000900404D51320E5E7100C308007E05004B2
:100BD00001D51020DEE7100401D50F20DAE7284602
:100BE000D8E700000080014010B500244FF48032A7
:100BF0000B4809E0416B11F0450F05D00AB14807D9
:100C000005D50324042006E0521EF3D2F7E7480678
:100C100003D50024402004F07DFC204610BD0000D8
:100C2000008001400029016802D041F0010102E08A
:100C30004FF6FE72114001607047000001684FF6E8
:100C4000FE72114001600021016041608160C1605D
:100C50003149314A0839904203D1486840F00F00C9
:100C600006E02D4A1432904204D1486840F0F0006A
:100C700048607047284A2832904203D1486840F4BF
:100C80007060F5E7244A3C32904203D1486840F452
:100C90007040EDE7204A5032904203D1486840F45A
:100CA0007020E5E71C4A6432904203D1486840F462
:100CB0007000DDE7184A7832904203D1486840F06E
:100CC0007060D5E7154A111F904203D1086840F0C3
:100CD0000F0006E0114A1432904204D1086840F037
:100CE000F000086070470D4A2832904203D108682E
:100CF00040F47060F5E7094A3C32904203D108683D
:100D000040F47040EDE7054A50329042EAD108685D
:100D100040F47020E5E700000800024008040240AB
:100D200030B5026847F6F0739A430C6A8B68234328
:100D3000D1E904452C4323438C692343CC692343E5
:100D40004C6A23438C6A234313430360CA6842609E
:100D50000A6882604968C16030BD704710B50A20DA
:100D600007F0F8F80121094800F098FA012806D1A7
:100D70000749D1F8A00138B10020C1F8A001BDE8B1
:100D80001040012000F09EB80120F6E70008014065
:100D90000080214210B50A2007F0DCF80421094840
:100DA00000F07CFA30B90849D1F8940138B100203C
:100DB000C1F89401BDE81040042000F083B8012080
:100DC000F6E70000001801400080214210B50A201B
:100DD00007F0C0F80821094800F060FA30B9084966
:100DE000D1F8940138B10020C1F89401BDE8104059
:100DF000082000F067B80120F6E700000018014065
:100E00000000234210B50A2007F0A4F81021094879
:100E100000F044FA30B90849D1F8940138B1002003
:100E2000C1F89401BDE81040102000F04BB801203B
:100E3000F6E7000000180140008021423EB508217D
:100E4000002000F09DF94FF48070002400908DF890
:100E5000044008208DF8050001258DF806506846ED
:100E600000F046F817208DF808008DF809408DF83D
:100E70000A408DF80B5002A803F0B4FF3EBD0000FD
:100E800010B54FF48074204600F022F801280DD1EF
:100E9000094A0020C2F898010121C2F898110748B8
:100EA000C0F88C1106480178491C01702046BDE845
:100EB000104000F007B8000000802242008021426C
:100EC0002C00002001490860704700001404014014
:100ED000064A014600201268044B0A4014331B687E
:100EE0000B4202D0002A00D00120704700040140CC
:100EF00030B51A4A8379016853B313688B43136082
:100F0000111D0B680468A3430B60017911440B6841
:100F1000046823430B60114B083319680468A1432C
:100F200019601C1D21680568A943216041791029B9
:100F300005D011440A68006802430A6030BD196890
:100F4000026811431960216800680143216030BDC7
:100F50000079104402688A43026030BD00040140F9
:100F60008000A0F1C0400029016802D041F00101D9
:100F700001E0024A1140016070470000FEFF0F00CF
:100F800010B5D0E901121143D0E903231A431143EC
:100F90004269114382691143C2691143026A1143D4
:100FA000426A1143826A1143C26A1143026B1143C0
:100FB00002689200A2F1C04211608168082907D13D
:100FC00001688900A1F1C0410A6842F040020A604C
:100FD000416BD1E9002342EA03128B688C891B0222
:100FE00043EA04431A430B8A42EA03520B7D8969A0
:100FF00042EA03620A4301688900A1F1C0414A60E4
:10100000C16AB1F5804F08D000686FF07041800070
:10101000A0F1C040C0F8041110BD816BD1E90023DC
:1010200042EA03128B680C8A1B0243EA04531A43F8
:101030000B7D896942EA036200680A438000A0F1DF
:10104000C040C0F8042110BD2DE9FC470024494FE1
:1010500000944FF0080A019410204FF04009C7F89F
:1010600000A0C7E901094FF48068C7E903480E46AC
:101070002546384604F0C2FA1020FFF715FD002877
:101080004DD13D480089000438603720C7E9010987
:10109000C7E90358384604F0B1FA3720FFF704FDDA
:1010A00000283CD1411E07F11400C0E9001A30218C
:1010B00081600221C0E903150121416104F046FA73
:1010C0003320C7F80890C7E90050C7E903583846ED
:1010D00004F094FA3320FFF7E7FC05001FD1DFF896
:1010E0009C804FF4001A6F4640F22A69D8F8340009
:1010F00010EA090F0BD1504604F050FA0028F5D041
:1011000004F076FA47F82400641C022CEED3082081
:1011100004F044FA28B1082004F0FCF90420BDE8EA
:10112000FC87022004F03AFA20B1022004F0F2F920
:101130000220F4E7202004F031FA20B1202004F04E
:10114000E9F90620EBE74FF40074204604F026FA94
:1011500020B1204604F0DEF90720E0E740F2FF501E
:1011600004F0D8F9009800BA7060019800BA3060B5
:101170002846D4E7101200201C0000200080014007
:1011800010B58A0721F003040649120F21440F23EA
:101190008C6893409C438C608B68904003438B60C9
:1011A00010BD000000000140F0B5CC78002204F032
:1011B0000F03E40601D58C7823430C784FF00F0C15
:1011C00014F0FF0F4FF0010E1BD005680E880EFAC9
:1011D00002F42640A64210D196000CFA06F725EA42
:1011E000070703FA06F5CE783D43282E02D0482E95
:1011F00002D002E0446100E00461521C082AE5D3F9
:1012000005600A88FF2A1CD94468002202F10806FA
:101210000EFA06F50E882E40AE420ED196000CFA5C
:1012200006F7BC4303FA06F7CE783C43282E00D1DC
:101230004561CE78482E00D10561521C082AE5D3BD
:101240004460F0BDF0B5144C002801DAE36900E019
:101250006368450D2E0185B2C0F30157B540C0F358
:101260000342032F05D0C6020AD503269640B34396
:1012700007E023F07062636823F07063636002E04C
:10128000AB4343F0706201B12A43002801DAE26106
:10129000F0BD6260F0BD0000000001400246002089
:1012A00092680A4200D00120704701617047000037
:1012B00030B40C4601461546500700D0012000EB23
:1012C000D5006843C2B208784B78812809D3402BF7
:1012D00007D3FF2B05D0FF2803D07F2B0CD2403B38
:1012E0000BE00023184603E05B1C04F8010BDBB2A3
:1012F0009342F9D330BC7047413B8138D9B2C0B278
:10130000C0EB401303EB801001EB400050430A494F
:101310000C2D0AD0102D0BD0182DEBD1D1F81910AF
:101320000144204630BC05F057BFD1F80910F7E75B
:10133000D1F81110F4E70000C4BF0020FEE772B638
:10134000704762B6704700007CB5054600211E4814
:1013500000910191008902041C4802600D22426044
:101360004022C0E902211101016104F047F9184C43
:10137000606B0190014601E0616B019111F0450F36
:10138000FAD0012004F00AF920B1012004F0C2F8DB
:1013900001207CBD042004F001F920B1042004F0F8
:1013A000B9F803207CBD20690D2801D010207CBD38
:1013B00040F2FF5004F0AEF860690090C0F34320A3
:1013C000287000207CBD00001C00002010120020AE
:1013D0000080014008B50121442003F0A9FE1C2033
:1013E000ADF8000048208DF8030069460648FFF775
:1013F000DBFE0120ADF8000028208DF803006946CF
:101400000248FFF7D1FE08BD001801400008014066
:101410002DE9F0412E4C2F4F2F4D012608B126709B
:1014200001E02078A0B110212846FFF737FFB0B1C6
:1014300008212846FFF732FF88B104212846FFF72C
:101440002DFF60B101213846FFF728FF012806D0A3
:1014500010212846FFF722FF012824D035E00A207A
:1014600006F078FD0020207010212846FFF716FFB7
:1014700080B108212846FFF711FF70B104212846EA
:10148000FFF70CFF58B101213846FFF707FF01288D
:1014900007D01AE00120BDE8F0810220FBE703201D
:1014A000F9E70420F7E708212846FFF7F7FE0128AF
:1014B0000BD104212846FFF7F1FE012805D10121B7
:1014C0003846FFF7EBFE00B926700020E3E7000086
:1014D000140000200008014000180140C0F345112D
:1014E000C20AC00200EB4110104480B270470000F5
:1014F0002DE9F043174F0646002438887D88454380
:10150000B888A0F5D041043902D1B879012807D0B4
:101510000021084603F038FA03F028FC0E4815E0D5
:101520000020B8714FF02A09A7F80A904FF02B0855
:10153000A7F80C80014603F027FA0120B871A7F83C
:101540000A80A7F80C90E7E70680641CAC42FBD346
:10155000BDE8F083E40100200008006C2DE9F04FA5
:101560004A492A232B24898845F2105A4FF4305BCC
:101570004FF4285E4FF448754FF0F00C49F24139B2
:101580004FF4A07745F210364FF4F07280B13F4827
:101590004FF00108494580F806800780A0F802C096
:1015A00001D0B1423ED12C2505814381848157E091
:1015B00036484FF00008494580F80680A0F800C082
:1015C000478006D0A1F5D04CBCF1040C01D0B1424B
:1015D0000CD12C2505814381A1F5D0438481043BA6
:1015E00001D0B14244D10780428041E0514507D14A
:1015F000A0F808B0A0F80AE04FF42C5181810EE069
:10160000A1F5C856633E06D02221018120214181E7
:10161000212181812CE02C21018144818381028060
:10162000458025E0A1F5D04CBCF1040C09D0514512
:101630000BD1A0F808B0A0F80AE04FF42C53838136
:1016400021E02C250581448109E0A1F5C85CBCF1AD
:10165000630C12D022230381212343812023838121
:10166000A1F5D043043B01D0B14201D102804780B3
:10167000BDE8F04F002003F0B3B84FF02C0CA0F8F9
:1016800008C04381848105804280E9E7E4010020AD
:101690002DE9F04FDFF81081934642460B46B8F82B
:1016A00004500C0ADFF804A19189060A5289A5F5B5
:1016B00013470AF10209413F19D0A5F5A647103F8B
:1016C00015D0A5F5AA47103F1CD04746A5F5C85C24
:1016D000BE793F883F1A7F1EBCF1630C27D0A5F569
:1016E000D04CBCF1040C3AD0012E4AD04AE0AAF802
:1016F00000204A46A9F80060C0B2A9F80000AAF884
:1017000000103AE0AAF80020A9F80060521CAAF8DC
:101710000020C0B2A9F80000AAF80010A9F8004003
:10172000491CAAF80010D8B2A9F8000033E006B9A5
:10173000B8B2AAF80020050A4A46A9F80050C7B274
:10174000A9F80070A9F80050C0B2A9F80000AAF8E2
:101750000010A9F80040D8B2A9F800000DE0012E51
:1017600000D1B8B2AAF80020050A4A46A9F80050EC
:10177000C0B2A9F80000AAF800101480D8B21080F6
:1017800009E0B8B20146104603F0FAFAB8F80C00C6
:10179000194603F0F5FAB8F80810AAF80010A9F8ED
:1017A00000B0BDE8F08F0000E4010020FE07006CEF
:1017B0002DE9F8431F4D1F468046AB88089EA3F5D0
:1017C000D040043802D1A879012807D0A2EB080044
:1017D000401C85B20C46DFF8609028E02B88084654
:1017E000991A0024AC713A462A24A3EB08036C81B1
:1017F0002B27491E5B1EAF8189B29BB20096FFF773
:10180000D7FF0120A8716F81AC81BDE8F883214624
:10181000404603F0B9F803F0A9FA0020494602E077
:101820000E80401C80B2A842FAD3641CA4B2BC4211
:10183000EDD9EAE7E40100200008006C2DE9F04F43
:1018400001210E029FB0304603F05AFC01214FF4F3
:10185000B47003F06DFC0127ADF83C704FF0100838
:101860008DF83F8003248DF83E400FA9FE48FFF716
:101870009BFC4CF23370ADF83C0018258DF83F50BE
:101880008DF83E400FA9F948FFF78EFC4FF68070A7
:10189000ADF83C008DF83F508DF83E400FA9F4485C
:1018A000FFF782FC41F20100ADF83C008DF83F509B
:1018B0008DF83E400FA9EF48FFF776FC00200F217E
:1018C000CDE918011A901B901C901D901090CDE945
:1018D0001104CDE91607149006211590CDE90010EA
:1018E000CDE90208139004903101CDE9080106907A
:1018F000059007908900CDE90A010C9017A80D907A
:1019000010A80E906846FFF73BFB01210620FFF769
:1019100027FB322006F01EFB002002F037FFD64DD9
:10192000D64C49F24139A88046F6040A45F2103BEC
:1019300045F210574FF6FF78FF2804D3404502D0F8
:10194000B0F5134F70D1D320208002F08FFEA88015
:1019500002F08CFEA88002F089FE08EA00204146D1
:10196000A88002F083FEAA881043A88048455BD077
:10197000BF20208002F07AFEA88002F077FEA880C7
:1019800002F074FEA88002F071FE01EA0020A88037
:1019900002F06CFEAA881043A880504544D0D420A1
:1019A000208002F063FEA88002F060FEA88002F0B2
:1019B0005DFE01EA0020A88002F058FEAA881043CC
:1019C000A880584530D04FF45A40208002F04EFE97
:1019D000A8804FF45B40208002F048FE01EA00201E
:1019E000A8804FF45C40208002F040FEAA8810439B
:1019F000A880B0F5004F7DD0B84215D0A12020803E
:101A000002F034FEA88002F031FE01EA0020A88036
:101A100002F02CFEA9880843A0F5AE41A8806139E8
:101A200002D141F66310A880A98895A0FEF744FC76
:101A3000A888924DAD1C48457ED1CF202080002043
:101A40002880C120288030202880ED20208064203C
:101A50002880032028801220288081202880E820E8
:101A6000208085202880102028807A202880CB2084
:101A70002080392028802C202880002028803420B5
:101A8000288002202880F720208020202880EA203B
:101A90002080002028802880C02020801B202880D3
:101AA000C120208001202880C5202080302028806F
:101AB0002880C7202080B72028803620208048201A
:101AC00028803A20208055202880B12020800020C6
:101AD00028801A202880B62020800A202880A22072
:101AE0002880F220208000202880262020800120CD
:101AF000288000E051E0E02020800F2028802A206C
:101B0000288028202880082028800E20288008206F
:101B1000288054202880A9202880432028800A205B
:101B200028800F2028800020288028802880288076
:101B3000E1202080002000E031E02880152028806E
:101B40001720288007202880112028800620288040
:101B50002B202880562028803C20288005202880A3
:101B6000102028800F2028803F20288028800F20E8
:101B700028802B2020800020288028800120288099
:101B80003F2028802A20208000202880288028804C
:101B9000EF2028801120208084E0AF8044E750456A
:101BA00076D111202080142006F0D4F9D020208096
:101BB00007202880422028801D202880D1202080D6
:101BC000002028801A20288009202880D220208008
:101BD0000120288022202880C020208010202880FA
:101BE0003B20288000202880022028801120288087
:101BF000C520208003202880C82020800020288045
:101C00002520288021202880052028800020288069
:101C10000A20288065202880252028807720288099
:101C2000502028800F20288000202880F820208045
:101C300001202880FE20208000202880022028808B
:101C40002020208036202080082028803A202080F4
:101C5000552028802B2020800020288028800120EB
:101C600028803F20288014E0000C0140001401402F
:101C70000018014000200140E4010020FE07006C34
:101C8000204C43442049443A25780D0A00000000C6
:101C90000EE02A2020800020288028800120288033
:101CA000DF202880782006F055F9292001F02DBC8E
:101CB00058457DD1ED20208001202880FE202880FD
:101CC000EE202080DE20288021202880F120208026
:101CD00001202880DF20208010202880C420208040
:101CE0008F202880C620208000202880E2202880A5
:101CF00028802880BF202080AA202880B020208033
:101D00000D202880002028800D2028800020288099
:101D10001120288000202880192028800020288079
:101D200021202880002028802D2028800020288045
:101D30003D202880002028805D20288000202880E9
:101D40005D20288000202880B120208080202880ED
:101D5000002028808B202880002028809620288042
:101D600000202880B22020800020288028800220A7
:101D70002880002028800320288000202880B3208D
:101D800020800020288028802880288028802880A3
:101D90002880288028802880288028802880288003
:101DA000288028802880288028802880288000E0BB
:101DB000FEE3288028802880B42020808B20288083
:101DC000002028809620288000202880A1202880BC
:101DD00000202880B5202080022028800020288034
:101DE00003202880002028800420288000202880CC
:101DF000B6202080002028802880B7202080002066
:101E0000288028803F202880002028805E2028808D
:101E10000020288064202880002028808C202880B2
:101E200000202880AC20288000202880DC2028800A
:101E30000020288070202880002028809020288082
:101E400000202880EB20288000202880DC202880AB
:101E500000202880B820208000202880288028802A
:101E600028802880288028802880BA20208024206C
:101E700028800020288028802880C12020802020E1
:101E80002880002028805420288000202880FF20DF
:101E9000288000202880C22020800A20288000205E
:101EA00028800420288000202880C32020803C2017
:101EB0002880002028803A2028800020288039208F
:101EC00028800020288037202880002028803C207F
:101ED000288000202880362028800020288032207A
:101EE0002880002028802F202880002028802C2077
:101EF0002880002028802920288000202880262073
:101F00002880002028802420288000202880242069
:101F100028800020288023202880002028803C2042
:101F20002880002028803620288000202880322029
:101F30002880002028802F202880002028802C2026
:101F40002880002028802920288000202880262022
:101F50002880002028802420288000202880242019
:101F60002880002028802320288000202880C4206A
:101F700020806220288000202880052028800020E2
:101F800028808420288000202880F02028800020BD
:101F900028801820288000202880A4202880002065
:101FA00028801820288000202880502028800020A9
:101FB00028800C20288000202880172028800020DE
:101FC00028809520288000202880F3202880002069
:101FD0002880E620288000202880C520208032200C
:101FE0002880002028804420288000202880652028
:101FF00028800020288076202880002028808820C3
:10200000288000202880C6202080202028800020D2
:102010002880172028800020288001202880002088
:102020002880C720208000202880288028802880C1
:10203000C820208000202880288028802880C9206F
:1020400020800020288028802880288028802880E0
:102050002880288028802880288028802880288040
:1020600028802880E02020801620288000202880DA
:102070001C20288000202880212028800020288003
:1020800036202880002028804620288000202880B4
:10209000522028800020288064202880002028806A
:1020A0007A202880002028808B202880002028800B
:1020B0009920288000202880A820288000202880BF
:1020C000B920288000202880C42028800020288073
:1020D000CA20288000202880D22028800020288044
:1020E000D920288000202880E02028800020288017
:1020F000F320288000202880E120208016202880DE
:10210000002028801C202880002028802220288071
:102110000020288036202880002028804520288024
:1021200000202880522028800020288064202880D9
:10213000002028807A202880002028808B2028807A
:10214000002028809920288000202880A82028802E
:1021500000202880B920288000202880C4202880E2
:1021600000202880CA20288000202880D2202880B3
:1021700000202880D820288000202880E020288087
:1021800000202880F320288000202880E220208062
:1021900005202880002028800B202880002028800F
:1021A0001B202880002028803420288000202880C0
:1021B00044202880002028804F202880002028806C
:1021C0006120288000202880792028800020288015
:1021D00088202880002028809720288000202880C0
:1021E000A620288000202880B72028800020288072
:1021F000C220288000202880C72028800020288036
:10220000D120288000202880D62028800020288007
:10221000DD20288000202880F320288000202880CE
:10222000E320208005202880002028800A202880A4
:10223000002028801C20288000202880332028802F
:1022400000202880442028800020288050202880DA
:102250000020288062202880002028807820288084
:10226000002028808820288000202880972028802F
:1022700000202880A620288000202880B7202880E1
:1022800000202880C220288000202880C7202880A5
:1022900000202880D120288000202880D520288078
:1022A00000202880DD20288000202880F32028803E
:1022B00000202880E4202080012028800020288021
:1022C00001202880002028800220288000202880EB
:1022D0002A202880002028803C2028800020288078
:1022E0004B202880002028805D2028800020288026
:1022F00074202880002028808420288000202880C6
:102300009320288000202880A22028800020288078
:10231000B320288000202880BE202880002028802C
:10232000C420288000202880CD20288000202880FC
:10233000D320288000202880DD20288000202880CD
:10234000F320288000202880E5202080002028809D
:1023500028802880288002202880002028802920AA
:102360002880002028803C202880002028804B20C6
:102370002880002028805D2028800020288074206C
:102380002880002028808420288000202880932016
:10239000288000202880A220288000202880B320C8
:1023A000288000202880BE20288000202880C4208B
:1023B000288000202880CD20288000202880D3205D
:1023C000288000202880DC20288000202880F3201E
:1023D000288000202880E6202080112028800020EE
:1023E0002880342028800020288056202880002043
:1023F00028807620288000202880772028800020D0
:1024000028806620288000202880882028800020BE
:1024100028809920288000202880BB202880002048
:10242000288099202880002028806620288000208D
:1024300028805520288000202880552028800020D2
:1024400028804520288000202880432028800020E4
:1024500028804420288000202880E7202080322007
:102460002880002028805520288000202880762081
:10247000288000202880662028800020288067206F
:10248000288000202880672028800020288087203E
:102490002880002028809920288000202880BB20C8
:1024A00028800020288099202880002028807720FC
:1024B0002880002028804420288000202880562062
:1024C0002880002028802320288000202880332096
:1024D0002880002028804520288000202880E820AF
:1024E00020800020288028809920288000202880B3
:1024F00087202880002028808820288000202880AD
:1025000077202880002028806620288000202880CE
:102510008820288000202880AA2028800020288069
:10252000BB20288000202880992028800020288037
:1025300066202880002028805520288000202880C0
:1025400055202880002028804420288000202880D2
:1025500044202880002028805520288000202880C2
:10256000E9202080AA202880002028802880288038
:102570002080AA202880CF2020800020288028804A
:10258000288028802880288028802880288028800B
:102590002880288028802880288028802880F02093
:1025A000208000202880502028800020288000E003
:1025B0002CE028802880F320208000202880F9202B
:1025C00020800620288010202880292028800020B4
:1025D00028803A20208055202880112020806420E7
:1025E00005F0B8FC2920208035202080002028809C
:1025F00051202080FF202880532020802C202880FC
:1026000055202080822028802C20FCE3B8427DD1F8
:102610004FF470435521184602F0B2FB4FF201050A
:10262000AA21284602F0ACFB6E1C5221304602F073
:10263000A7FBAF1C0821384602F0A2FB4FF20409A9
:102640000121484602F09CFB0D214FF4304002F07E
:1026500097FB0D214BF2010002F092FB0D214BF292
:10266000020002F08DFB4FF4364A3421504602F04E
:1026700087FB34214BF2016002F082FB34214BF2E4
:10268000026002F07DFB4FF4314B0D21584602F001
:1026900077FB0D214BF2011002F072FB0D214BF282
:1026A000021002F06DFB34214FF4374002F068FB5A
:1026B00034214BF2017002F063FB34214BF20270C3
:1026C00002F05EFB00214FF4324002F059FB002182
:1026D0004BF2012002F054FB00214BF2022002F0E9
:1026E0004FFB24214FF4384002F04AFB24214BF6E3
:1026F000010002F045FB24214BF6020002F040FBF2
:1027000001214FF43F4002F03BFB00E0FEE30F21CC
:102710004FF4334002F034FB0F214BF2013002F052
:102720002FFB0F214BF2023002F02AFB34214FF431
:10273000394002F025FB34214BF6011002F020FB5A
:1027400034214BF6021002F01BFB08214FF43540F8
:1027500002F016FB08214BF2015002F011FB082198
:102760004BF2025002F00CFB03214FF4424002F006
:1027700007FB24214FF43A4002F002FB24214BF6E0
:10278000012002F0FDFA24214BF6022002F0F8FAB3
:1027900000214FF43C4002F0F3FA78214BF601405F
:1027A00002F0EEFA00214BF6024002F0E9FA0021B5
:1027B0004FF43D4002F0E4FA78214BF6015002F06C
:1027C000DFFA00214BF6025002F0DAFA00214FF452
:1027D0003E4002F0D5FA64214BF6016002F0D0FAD7
:1027E00000214FF4514002F0CBFA33214DF2011099
:1027F00002F0C6FA00214DF2021002F0C1FA3421B3
:102800004DF2031002F0BCFA00214DF2041002F068
:10281000B7FA3A214DF2051002F0B2FA00214DF25A
:10282000061002F0ADFA4A214DF2071002F0A8FAA4
:1028300000214DF2081002F0A3FA5C214DF20910BC
:1028400002F09EFA00214DF20A1002F099FA81215D
:102850004DF20B1002F094FA00214DF20C1002F030
:102860008FFAA6214DF20D1002F08AFA00214DF2E6
:102870000E1002F085FAE5214DF20F1002F080FAF9
:1028800001214DF2101002F07BFA13214DF21110CC
:1028900002F076FA01214DF2121002F071FA542181
:1028A0004DF2131002F06CFA01214DF2141002F0F7
:1028B00067FA82214DF2151002F062FA01214DF201
:1028C000161002F05DFACA214DF2171002F058FA04
:1028D00002214DF2181002F053FA00214DF21910A6
:1028E00002F04EFA02214DF21A1002F049FA0121CB
:1028F0004DF21B1002F044FA02214DF21C1002F0BE
:102900003FFA34214DF21D1002F03AFA02214DF245
:102910001E1002F035FA67214DF21F1002F030FA56
:1029200002214DF2201002F02BFA84214DF22110E9
:1029300002F026FA02214DF2221002F021FAA4211F
:102940004DF2231002F01CFA02214DF2241002F085
:1029500017FAB7214DF2251002F012FA02214DF2BA
:10296000261002F00DFACF214DF2271002F008FADE
:1029700002214DF2281002F003FADE214DF2291057
:1029800002F0FEF902214DF22A1002F0F9F9F221CB
:102990004DF22B1002F0F4F902214DF22C1002F04E
:1029A000EFF9FE214DF22D1002F0EAF903214DF26C
:1029B0002E1002F0E5F910214DF22F1002F0E0F98F
:1029C00003214DF2301002F0DBF933214DF23110CA
:1029D00002F0D6F903214DF2321002F0D1F96D2147
:1029E0004DF2331002F0CCF900214FF4524002F0C6
:1029F000C7F933214DF2012002F0C2F900214DF256
:102A0000022002F0BDF934214DF2032002F0B8F9A2
:102A100000214DF2042002F0B3F93A214DF20520D5
:102A200002F0AEF900214DF2062002F0A9F94A2188
:102A30004DF2072002F0A4F900214DF2082002F027
:102A40009FF95C214DF2092002F09AF900214DF224
:102A50000A2002F095F981214DF20B2002F090F945
:102A600000214DF20C2002F08BF9A6214DF20D2031
:102A700002F086F900214DF20E2002F081F9E521E5
:102A80004DF20F2002F07CF901214DF2102002F0EE
:102A900077F913214DF2112002F072F901214DF264
:102AA000122002F06DF954214DF2132002F068F962
:102AB00001214DF2142002F063F982214DF215201C
:102AC00002F05EF901214DF2162002F059F9CA21F7
:102AD0004DF2172002F054F902214DF2182002F0B5
:102AE0004FF900214DF2192002F04AF902214DF26E
:102AF0001A2002F045F901214DF21B2002F040F9A5
:102B000002214DF21C2002F03BF934214DF21D2030
:102B100002F036F902214DF21E2002F031F9672150
:102B20004DF21F2002F02CF902214DF2202002F07C
:102B300027F984214DF2212002F022F902214DF2E1
:102B4000222002F01DF9A4214DF2232002F018F9F1
:102B500002214DF2242002F013F9B7214DF2252075
:102B600002F00EF902214DF2262002F009F9CF21E0
:102B70004DF2272002F004F902214DF2282002F044
:102B8000FFF8DE214DF2292002F0FAF802214DF281
:102B90002A2002F0F5F8F2214DF22B2002F0F0F895
:102BA00002214DF22C2002F0EBF8FE214DF22D20F7
:102BB00002F0E6F803214DF22E2002F0E1F8102198
:102BC0004DF22F2002F0DCF803214DF2302002F00C
:102BD000D7F833214DF2312002F0D2F803214DF223
:102BE000322002F0CDF86D214DF2332002F0C8F80A
:102BF00000214FF4534002F0C3F833214DF201306D
:102C000002F0BEF800214DF2023002F0B9F8342192
:102C10004DF2033002F0B4F800214DF2043002F01E
:102C2000AFF83A214DF2053002F0AAF800214DF23A
:102C3000063002F0A5F84A214DF2073002F0A0F864
:102C400000214DF2083002F09BF85C214DF2093072
:102C500002F096F800214DF20A3002F091F881213D
:102C60004DF20B3002F08CF800214DF20C3002F0E6
:102C700087F8A6214DF20D3002F082F800214DF2C6
:102C80000E3002F07DF8E5214DF20F3002F078F8B9
:102C900001214DF2103002F073F813214DF2113082
:102CA00002F06EF801214DF2123002F069F8542161
:102CB0004DF2133002F064F801214DF2143002F0AD
:102CC0005FF882214DF2153002F05AF801214DF2E1
:102CD000163002F055F8CA214DF2173002F050F8C4
:102CE00002214DF2183002F04BF800214DF219305C
:102CF00002F046F802214DF21A3002F041F80121AB
:102D00004DF21B3002F03CF802214DF21C3002F073
:102D100037F834214DF21D3002F032F802214DF225
:102D20001E3002F02DF867214DF21F3002F028F816
:102D300002214DF2203002F023F884214DF221309F
:102D400002F01EF802214DF2223002F019F8A421FF
:102D50004DF2233002F014F802214DF2243002F03B
:102D60000FF8B7214DF2253002F00AF802214DF29A
:102D7000263002F005F8CF214DF2273002F000F89E
:102D800002214DF2283001F0FBFFDE214DF2293007
:102D900001F0F6FF02214DF22A3001F0F1FFF2219D
:102DA0004DF22B3001F0ECFF02214DF22C3001F0FE
:102DB000E7FFFE214DF22D3001F0E2FF03214DF23D
:102DC0002E3001F0DDFF10214DF22F3001F0D8FF41
:102DD00003214DF2303001F0D3FF33214DF2313079
:102DE00001F0CEFF03214DF2323001F0C9FF6D2119
:102DF0004DF2333001F0C4FF00214FF4544001F094
:102E0000BFFF332100E080E34DF2014001F0B8FF45
:102E100000214DF2024001F0B3FF34214DF2034096
:102E200001F0AEFF00214DF2044001F0A9FF3A216C
:102E30004DF2054001F0A4FF00214DF2064001F0E3
:102E40009FFF4A214DF2074001F09AFF00214DF209
:102E5000084001F095FF5C214DF2094001F090FF20
:102E600000214DF20A4001F08BFF81214DF20B4011
:102E700001F086FF00214DF20C4001F081FFA621F8
:102E80004DF20D4001F07CFF00214DF20E4001F0AB
:102E900077FFE5214DF20F4001F072FF01214DF265
:102EA000104001F06DFF13214DF2114001F068FF59
:102EB00001214DF2124001F063FF54214DF2134005
:102EC00001F05EFF01214DF2144001F059FF822113
:102ED0004DF2154001F054FF01214DF2164001F072
:102EE0004FFFCA214DF2174001F04AFF02214DF277
:102EF000184001F045FF00214DF2194001F040FF5C
:102F000002214DF21A4001F03BFF00E0FFE20121F7
:102F10004DF21B4001F034FF02214DF21C4001F044
:102F20002FFF34214DF21D4001F02AFF02214DF206
:102F30001E4001F025FF67214DF21F4001F020FFE8
:102F400002214DF2204001F01BFF84214DF221406F
:102F500001F016FF02214DF2224001F011FFA421E1
:102F60004DF2234001F00CFF02214DF2244001F00C
:102F700007FFB7214DF2254001F002FF02214DF27B
:102F8000264001F0FDFECF214DF2274001F0F8FE72
:102F900002214DF2284001F0F3FEDE214DF22940DE
:102FA00001F0EEFE02214DF22A4001F0E9FEF2218D
:102FB0004DF22B4001F0E4FE02214DF22C4001F0D5
:102FC000DFFEFE214DF22D4001F0DAFE03214DF22D
:102FD0002E4001F0D5FE10214DF22F4001F0D0FE21
:102FE00003214DF2304001F0CBFE33214DF2314050
:102FF00001F0C6FE03214DF2324001F0C1FE6D2109
:103000004DF2334001F0BCFE00214FF4554001F079
:10301000B7FE33214DF2015001F0B2FE00214DF216
:10302000025001F0ADFE34214DF2035001F0A8FE34
:1030300000214DF2045001F0A3FE3A214DF205505B
:1030400001F09EFE00214DF2065001F099FE4A214A
:103050004DF2075001F094FE00214DF2085001F0AE
:103060008FFE5C214DF2095001F08AFE00214DF2E5
:103070000A5001F085FE81214DF20B5001F080FED7
:1030800000214DF20C5001F07BFEA6214DF20D50B7
:1030900001F076FE00214DF20E5001F071FEE521A7
:1030A0004DF20F5001F06CFE01214DF2105001F075
:1030B00067FE13214DF2115001F062FE01214DF225
:1030C000125001F05DFE54214DF2135001F058FEF4
:1030D00001214DF2145001F053FE82214DF21550A2
:1030E00001F04EFE01214DF2165001F049FECA21B9
:1030F0004DF2175001F044FE02214DF2185001F03C
:103100003FFE00214DF2195001F03AFE02214DF22E
:103110001A5001F035FE01214DF21B5001F030FE36
:1031200002214DF21C5001F02BFE34214DF21D50B6
:1031300001F026FE02214DF21E5001F021FE672112
:103140004DF21F5001F01CFE02214DF2205001F003
:1031500017FE84214DF2215001F012FE02214DF2A2
:10316000225001F00DFEA4214DF2235001F008FE83
:1031700002214DF2245001F003FEB7214DF22550FB
:1031800001F0FEFD02214DF2265001F0F9FDCF21A4
:103190004DF2275001F0F4FD02214DF2285001F0CC
:1031A000EFFDDE214DF2295001F0EAFD02214DF242
:1031B0002A5001F0E5FDF2214DF22B5001F0E0FD27
:1031C00002214DF22C5001F0DBFDFE214DF22D507D
:1031D00001F0D6FD03214DF22E5001F0D1FD10215A
:1031E0004DF22F5001F0CCFD03214DF2305001F093
:1031F000C7FD33214DF2315001F0C2FD03214DF2E4
:10320000325001F0BDFD6D214DF2335001F0B8FD9B
:1032100000214FF4564001F0B3FD33214DF201601F
:1032200001F0AEFD00214DF2026001F0A9FD342154
:103230004DF2036001F0A4FD00214DF2046001F0A5
:103240009FFD3A214DF2056001F09AFD00214DF2FB
:10325000066001F095FD4A214DF2076001F090FDF6
:1032600000214DF2086001F08BFD5C214DF20960F8
:1032700001F086FD00214DF20A6001F081FD8121FF
:103280004DF20B6001F07CFD00214DF20C6001F06D
:1032900077FDA6214DF20D6001F072FD00214DF287
:1032A0000E6001F06DFDE5214DF20F6001F068FD4B
:1032B00001214DF2106001F063FD13214DF2116008
:1032C00001F05EFD01214DF2126001F059FD542123
:1032D0004DF2136001F054FD01214DF2146001F034
:1032E0004FFD82214DF2156001F04AFD01214DF2A2
:1032F000166001F045FDCA214DF2176001F040FD56
:1033000002214DF2186001F03BFD00214DF21960E1
:1033100001F036FD02214DF21A6001F031FD01216C
:103320004DF21B6001F02CFD02214DF21C6001F0FA
:1033300027FD34214DF21D6001F022FD02214DF2E6
:103340001E6001F01DFD67214DF21F6001F018FDA8
:1033500002214DF2206001F013FD84214DF2216025
:1033600001F00EFD02214DF2226001F009FDA421C1
:103370004DF2236001F004FD02214DF2246001F0C2
:10338000FFFCB7214DF2256001F0FAFC02214DF25D
:10339000266001F0F5FCCF214DF2276001F0F0FC32
:1033A00002214DF2286001F0EBFCDE214DF2296094
:1033B00001F0E6FC02214DF22A6001F0E1FCF2216D
:1033C0004DF22B6001F0DCFC02214DF22C6001F08B
:1033D000D7FCFE214DF22D6001F0D2FC03214DF20D
:1033E0002E6001F0CDFC10214DF22F6001F0C8FCE1
:1033F00003214DF2306001F0C3FC33214DF2316006
:1034000001F0BEFC03214DF2326001F0B9FC6D21E8
:103410004DF2336001F0B4FC5521184601F0B0FCC8
:10342000AA21284601F0ACFC5221304601F0A8FC4C
:103430000821384601F0A4FC0021484601F0A0FC18
:10344000CC21584601F09CFC00214BF2011001F008
:1034500097FC0521504601F093FC70214FF4374052
:1034600001F08EFC70214BF2017001F089FC01210A
:103470004FF4384001F084FC03214BF6010001F0C9
:103480007FFC03214BF6020001F07AFC03214BF68E
:10349000030001F075FC02214FF43C4001F070FC88
:1034A00000214BF6014001F06BFC00214BF602407D
:1034B00001F066FCD0214FF4494001F061FC02218B
:1034C0004CF6011001F05CFC50214CF6021001F0AA
:1034D00057FC50214CF6031001F052FC50214CF6E1
:1034E000041001F04DFC00214FF4545001F048FC51
:1034F00055214FF4685001F043FC4FF48850208070
:10350000782004F041FD4FF424502080FEE3A0F524
:1035100013414FF4E06940F2022A4FF4274B25395A
:103520002ED0A0F5134140F2077728397ED0A0F5C0
:1035300013414FF4887B203979D0A0F513413139FC
:1035400076D0A0F5A841083973D0A0F5A8514FF462
:10355000407B05396ED0A0F5354105396BD0A0F51B
:103560004541053968D0A0F58A4131397ED0A0F5B2
:103570008A4135397BD0A0F5C851633978D0C5E789
:1035800047F6F001E52001F0FBFB3146012001F098
:10359000F7FB4946022001F0F3FB41F23001032022
:1035A00001F0EEFB0021042001F0EAFB5146082067
:1035B00001F0E6FB0021092001F0E2FB00210A20D6
:1035C00001F0DEFB00210C2001F0DAFB00210D20D0
:1035D00001F0D6FB00210F2001F0D2FB00211020CA
:1035E00001F0CEFB0721112001F0CAFB00211220BF
:1035F00001F0C6FB0021132001F0C2FB00210720CF
:1036000001F0BEFB41F29061102001F0B9FB40F2E5
:103610002721112001F0B4FB9D21122001F0B0FB05
:103620004FF4C851132001F0ABFB06E080E03CE111
:10363000E1E1B7E253E3FDE3FDE32521292001F0B9
:103640009FFB0D212B2001F09BFB0721302001F077
:1036500097FB40F20331312001F092FB032132202D
:1036600001F08EFB40F20621352002E0FEE3FEE38E
:10367000FEE301F085FB0821362001F081FB40F2DA
:103680000641372001F07CFB4FF44171382001F0F6
:1036900077FB0721392001F073FB40F202613C20E7
:1036A00001F06EFB08213D2001F06AFB0021502053
:1036B00001F066FBEF21512001F062FB0021522056
:1036C00001F05EFB40F23F11532001F059FB5946D7
:1036D000602001F055FB0121612001F051FB002128
:1036E0006A2001F04DFB0021802001F049FB002100
:1036F000812001F045FB0021822001F041FB0021E7
:10370000832001F03DFB0021842001F039FB0021E2
:10371000852001F035FB1021902001F031FB4FF4A2
:10372000C061922001F02CFB40F233110720FDE331
:1037300041F28F01EC2001F023FB41F23421EF2014
:1037400001F01EFB3146012001F01AFB4946022020
:1037500001F016FB41F23001032001F011FB0021C2
:10376000042001F00DFB5146082001F009FB002167
:10377000092001F005FB00210A2001F001FB0121D5
:103780000C2001F0FDFA00210D2001F0F9FA0021D2
:103790000F2001F0F5FA0021102001F0F1FA0721C5
:1037A000112001F0EDFA0021122001F0E9FA0021C8
:1037B000132001F0E5FA0121072001F0E1FA32209F
:1037C00004F0C8FB41F29041102001F0D9FA40F218
:1037D0002721112001F0D4FA322004F0BBFB8A210A
:1037E000122001F0CDFA322004F0B4FB4FF4D05196
:1037F000132001F0C5FA0621292001F0C1FA0D219C
:103800002B2001F0BDFA322004F0A4FB002120207F
:1038100001F0B6FA0021212001F0B2FA322004F0C2
:1038200099FB0021302001F0ABFA40F20461312015
:1038300001F0A6FA40F20531322001F0A1FA002190
:10384000352001F09DFA40F60941362001F098FA42
:103850004FF40171372001F093FA40F20131382022
:1038600001F08EFA3946392001F08AFA00213C2015
:1038700001F086FA40F60A213D2001F081FA32205B
:1038800004F068FB0021502001F07AFAEF2151206A
:1038900001F076FA0021522001F072FA40F23F1155
:1038A000532001F06DFA594651E10021084601F01C
:1038B00067FA3146012001F063FA4946022001F01F
:1038C0005FFA41F23001032001F05AFA002104208E
:1038D00001F056FA5146082001F052FA0021092061
:1038E00001F04EFA00210A2001F04AFA01210C20D1
:1038F00001F046FA00210D2001F042FA00210F20CC
:1039000001F03EFA322004F025FB40F201110720BD
:1039100001F036FA322004F01DFB4FF486511020DE
:1039200001F02EFA0721112001F02AFA5B465946D0
:10393000122001F025FA4FF43061132001F020FA33
:103940000021292001F01CFA44F210012B2001F083
:1039500017FA0021502001F013FAEF21512001F055
:103960000FFA0021522001F00BFA40F23F115320D0
:1039700001F006FA4FF41C51602001F001FA012118
:10398000612001F0FDF900216A2001F0F9F9002120
:10399000802001F0F5F90021812001F0F1F90021EA
:1039A000822001F0EDF90021832001F0E9F90021E6
:1039B000842001F0E5F90021852001F0E1F91021D2
:1039C000902001F0DDF90021922001F0D9F90121C8
:1039D000932001F0D5F91946952001F0D1F9002185
:1039E000972001F0CDF90021982001F0C9F940F2AB
:1039F0007311072086E341F21401E72001F0C0F9BA
:103A00003146012001F0BCF94FF40071022001F0B1
:103A1000B7F941F23801032001F0B2F9514608200C
:103A200001F0AEF90021092001F0AAF900210A20D5
:103A300001F0A6F900210C2001F0A2F900210D20CF
:103A400001F09EF900210F2001F09AF900211020C9
:103A500001F096F90721112001F092F900211220BE
:103A600001F08EF90021132001F08AF9C82004F03A
:103A700071FA41F29061102001F082F940F22721A1
:103A8000112001F07DF9322004F064FA0C2112209B
:103A900001F076F9322004F05DFA4FF40061132052
:103AA00001F06EF91121292001F06AF90B212B2078
:103AB00001F066F9322004F04DFA0021202001F0D7
:103AC0005FF940F23F131946212001F059F9002116
:103AD000302001F055F94FF483742146312001F074
:103AE0004FF90021322001F04BF94FF401713520DC
:103AF00001F046F941F20A61362001F041F93946F8
:103B0000372001F03DF92146382001F039F93946D6
:103B1000392001F035F940F202413C2001F030F942
:103B200040F60F413D2001F02BF90021502001F01B
:103B300027F9EF21512001F023F90021522001F053
:103B40001FF91946532001F01BF94FF41C51602056
:103B500001F016F90121612001F012F900216A201B
:103B600001F00EF90021802001F00AF900218120E6
:103B700001F006F90021822001F002F900218320E2
:103B800001F0FEF80021842001F0FAF800218520E0
:103B900001F0F6F81021902001F0F2F84FF4C06126
:103BA0009220FDE33146012001F0EAF84946022067
:103BB00001F0E6F841F23001032001F0E1F80021C4
:103BC000042001F0DDF840F20721082001F0D8F8C8
:103BD0000021092001F0D4F800210A2001F0D0F8DA
:103BE00000210C2001F0CCF800210D2001F0C8F8D4
:103BF00000210F2001F0C4F8142004F0ABF941F2C9
:103C0000B061102001F0BCF80121112001F0B8F8DA
:103C10000121172001F0B4F84FF49C71122001F03B
:103C2000AFF84FF40061132001F0AAF80921292010
:103C300001F0A6F809212A2001F0A2F80021A42011
:103C400001F09EF80021502001F09AF8EF21512058
:103C500001F096F80021522001F092F840F23F1155
:103C6000532001F08DF84FF41C51602001F088F8CA
:103C70000121612001F084F800216A2001F080F820
:103C80000021802001F07CF80021812001F078F8EB
:103C90000021822001F074F80021832001F070F8E7
:103CA0000021842001F06CF80021852001F068F8E3
:103CB0001321902001F064F80021922001F060F8B7
:103CC0000321932001F05CF85946952001F058F843
:103CD00040F27311072001F053F8322011E1002166
:103CE000072001F04DF8322004F034F94FF48E71C2
:103CF000122001F045F80121A42001F041F80F2124
:103D0000082001F03DF808210A2000E07BE301F0E3
:103D100037F808210D2001F033F83946302001F042
:103D20002FF80721312001F02BF840F203613220F7
:103D300001F026F84C464946332001F021F851465F
:103D4000342001F01DF80221352001F019F841F668
:103D50000F71362001F014F83946372001F010F8C1
:103D60000021382001F00CF80021392001F008F87A
:103D700039463A2001F004F800213B2001F000F818
:103D800007213C2000F0FCFF00213D2000F0F8FF5F
:103D9000322004F0DFF80121072000F0F1FF0121BB
:103DA000172000F0EDFF322004F0D4F84FF4BD519D
:103DB000102000F0E5FF40F21721112000F0E0FF95
:103DC0004FF48F71122000F0DBFF4FF4706113206D
:103DD00000F0D6FF00212A2000F0D2FF0A2129207E
:103DE00000F0CEFF4FF49F71122000F0C9FF0021B8
:103DF000502000F0C5FFEF21512000F0C1FF00214D
:103E0000522000F0BDFF40F23F11532000F0B8FFF8
:103E10004FF41C51602000F0B3FF0121612000F03D
:103E2000AFFF00216A2000F0ABFF0021802000F0EE
:103E3000A7FF01E068E066E10021812000F0A0FF1B
:103E40000021822000F09CFF0021832000F098FFD9
:103E50000021842000F094FF0021852000F090FFD5
:103E60001321902000F08CFF594602E015E2CBE2CE
:103E700072E3922000F084FF0521932000F080FF80
:103E80000021952000F07CFF0021972000F078FFB2
:103E90000021982000F074FF3146012000F070FFEF
:103EA0002146022000F06CFF41F23801032000F0AF
:103EB00067FF0021042000F063FF00210C2000F0C8
:103EC0005FFF00210F2000F05BFF0021202000F0A9
:103ED00057FF0021212000F053FF2121072000F08F
:103EE0004FFF142004F036F86121072000F048FF4E
:103EF000142004F02FF840F27311072000F040FF67
:103F0000142004F027F8A1E30021084600F038FF50
:103F10000021084600F034FF0021084600F030FF81
:103F20000021084600F02CFF012100E0E6E0A4207B
:103F300000F026FF142004F00DF84FF41C54214625
:103F4000602000F01DFF55465146082000F018FF84
:103F50004FF40571302000F013FF43F2157131204A
:103F600000F00EFF40F20461322000F009FF40F63D
:103F70001661332000F004FF42F21121342000F0DA
:103F8000FFFE4FF4A851352000F0FAFE48F2075129
:103F9000362000F0F5FE41F20741372000F0F0FE38
:103FA00041F20341382000F0EBFE2021392000F0DF
:103FB000E7FE1A21902000F0E3FE0021102000F01F
:103FC000DFFE0721112000F0DBFE0021122000F0AF
:103FD000D7FE0021132000F0D3FE142003F0BAFF17
:103FE0004FF4E661102000F0CBFE40F237111120B3
:103FF00000F0C6FE142003F0ADFF4FF4DC71122078
:1040000000F0BEFE142003F0A5FF4FF470611320F2
:1040100000F0B6FE80212A2000F0B2FE48212920BF
:1040200000F0AEFE142003F095FF3146012000F0B1
:10403000A7FE4946022000F0A3FE41F2380103200A
:1040400000F09EFE2946082000F09AFE00210A207A
:1040500000F096FE00210C2000F092FE00210D20C1
:1040600000F08EFE30210E2000F08AFE002150204C
:1040700000F086FEEF21512000F082FE0021522048
:1040800000F07EFE40F23F11532000F079FE214601
:10409000602000F075FE0121612000F071FE00211A
:1040A0006A2000F06DFE1121902000F069FE4FF4AF
:1040B000C061922000F064FE40F20241932000F0C3
:1040C0005FFE0221942000F05BFE142003F042FF0B
:1040D0000121072000F054FE142003F03BFF612172
:1040E000072000F04DFE40F27311072000F048FE5B
:1040F0000021202000F044FE0021212000F040FE9D
:10410000222100207DE10021084600F039FE002137
:10411000084600F035FE142003F01CFF002108467D
:1041200000F02EFE0021084600F02AFE002108467D
:1041300000F026FE0021084600F022FE0121A42006
:1041400000F01EFE142003F005FF4FF41C51602008
:1041500000F016FE40F60601082000F011FE40F2C5
:1041600003731946302000F00BFE0121312000F0CE
:1041700007FE0421322000F003FE4FF4817133204A
:1041800000F0FEFD5C465946342000F0F9FD40F297
:104190000311352000F0F4FD1F21362000F0F0FD62
:1041A0001946372000F0ECFD0121382000F0E8FD31
:1041B0000421392000F0E4FD1521902000F0E0FDFD
:1041C0004FF48261102000F0DBFD40F24721112006
:1041D00000F0D6FD4FF4DE71122000F0D1FD4FF457
:1041E0006061132000F0CCFD782003F0B3FE31466F
:1041F000012000F0C5FD4FF40071022000F0C0FD69
:1042000041F23001032000F0BBFD08210A2000F03C
:10421000B7FD00210C2000F0B3FD20210E2000F09E
:10422000AFFD00210F2000F0ABFD0021202000F0A9
:10423000A7FD0021212000F0A3FD3D212A2000F050
:104240009FFD142003F086FE2D21292000F098FD0B
:104250000021502000F094FD4DF2EF01512000F0BC
:104260008FFD0021522000F08BFD40F23F115320C2
:1042700000F086FD0021612000F082FD00216A200F
:1042800000F07EFD2146922000F07AFD052193206A
:1042900000F076FD3146FFF7ACBB0121002000F0B5
:1042A0006FFD0A2003F056FE41F22861102000F055
:1042B00067FD0E21122000F063FD40F63921132026
:1042C00000F05EFD0A2003F045FE4021112000F0C1
:1042D00057FD5021152000F053FD0A2003F03AFE4F
:1042E0001E21122000F04CFD0A2003F033FE4FF493
:1042F000B151102000F044FD42F63921132000F0A6
:104300003FFD0A2003F026FE3146012000F038FD73
:104310005946022000F034FD41F23801032000F03C
:104320002FFD5146082000F02BFD08210A2000F047
:1043300027FD0021302000F023FD40F20241312012
:1043400000F01EFD4FF48371322000F019FD40F2A1
:104350000351332000F014FD4FF48271342000F03B
:104360000FFD40F20131352000F00AFD39463620BC
:1043700000F006FD40F20531372000F001FD4FF45A
:104380000271382000F0FCFC40F60B71392000F07F
:10439000F7FC0221412000F0F3FC4FF41C5100E037
:1043A000D5E0602000F0ECFC0121612000F0E8FC89
:1043B0004FF40471902000F0E3FC4FF485719220DB
:1043C00000F0DEFC0421932000F0DAFC3146A0204E
:1043D00000F0D6FC0121072000F0D2FC21210720AB
:1043E00000F0CEFC2321072000F0CAFC3321072077
:1043F00000F0C6FC40F23311072000F0C1FC0021A0
:10440000A02000F0BDFC21E13021152000F0B8FC17
:1044100010219A2000F0B4FC2021112000F0B0FC03
:1044200043F22841102000F0ABFC0221122000F0E2
:10443000A7FC41F23801132000F0A2FC282003F071
:1044400089FD1221084600F09BFC282003F082FD24
:1044500043F22041102000F093FC43F23801132076
:1044600000F08EFC462003F075FD0021302000F0A6
:1044700087FC40F20241312000F082FC40F207311B
:10448000322000F07DFC4FF44171332000F078FCC5
:104490000421342000F074FC40F20141352000F08A
:1044A0006FFC3946362000F06BFC40F205313720B6
:1044B00000F066FC4FF4C2631946382000F060FC3F
:1044C0001946392000F05CFC3146012000F058FC10
:1044D0005946022000F054FC41F23001032000F064
:1044E0004FFC40F60801082000F04AFC08210A2091
:1044F00000F046FC4FF41C51602000F041FC01210B
:10450000612000F03DFC4FF49F71902000F038FCDA
:104510003146922000F034FC3146932000F030FC0C
:104520004FF44051A02000F02BFC1021A32000F0FC
:1045300027FC0121072000F023FC2121072000F0A7
:104540001FFC2321072000F01BFC3321072000F073
:1045500017FC40F233119EE6E22020801D202880C7
:104560000220288004202880642003F00DFDE02034
:104570002080012028800A2003F0ECFCE02020802D
:10458000032028800C2003F0E5FC012020800A2075
:1045900003F0E0FCE62020802F202880FF202880E8
:1045A0002880B02020802020288000202880032020
:1045B000288040F21F3028800120288040F2DF1040
:1045C000288000202880B42020800420288040F209
:1045D0001F402880002028802E202880002028804E
:1045E000288028802880B6202080022028804FF450
:1045F000037028800020288017202880152028801C
:10460000002028802880F020208003202880292076
:104610002080D020208000202880BE2020800520FF
:104620002880FE20288001202880002028802880E3
:104630002880B82020800320288001202880BA20EC
:10464000208001202880642000F0ACF80020FCF7D6
:1046500085FF05490120C1F880014046FCF748FF6D
:104660001FB0BDE8F08F000000802142034808B56C
:104670000088ADF80000BDF8000008BD0008006C1F
:104680002DE9F0413F4E002425463288824202D96E
:1046900072888A4202D80020BDE8F08100F074F9E7
:1046A000B08849F24138384B41F6631745F2103172
:1046B00045F21052404508D0A0F5D04CBCF1040C96
:1046C00003D0884201D0B84202D14FF02E0C06E050
:1046D000904202D14FF4385C01E04FF0220CA3F875
:1046E00000C0A0F51343203B03D10220401EC0B2FE
:1046F000FCD2FFF7BBFFB388BB42CDD00220401EE7
:10470000C0B2FCD2FFF7B2FF0746B088404503D0E5
:10471000884201D090420BD10220401EC0B2FCD290
:10472000FFF7A4FF0546F8B24FF6FF7303EA002433
:10473000B088A0F51343253B1DD0A0F58A43353B37
:1047400019D0A0F58A43313B15D0A0F53543053B80
:1047500011D0A0F54543053B0DD0404503D088421C
:1047600001D0904209D1F80AC002A10A40EA4110E2
:1047700040EAD52090E738468EE73846BDE8F0415C
:10478000FCF7ACBEE4010020FE07006C044910B544
:104790000880052003F0F8FBBDE81040FFF766BF76
:1047A000FE07006C0C4A10B5BE211180941C052137
:1047B000218008F0ACF94FF06632084B08F0BAF9E6
:1047C00008F078F9208001202080FF202080002040
:1047D0002080208010BD0000FE07006C666604404B
:1047E000F0B5674E00233146B279898846F6040752
:1047F00041F66314012A01D02AB11DE0B9421BD051
:10480000A14202D118E0A14216D1082814D2DFE853
:1048100000F00406080A0C0E101206200CE0072017
:104820000AE0042008E0052006E0012004E0002062
:1048300002E0032000E00220A1F5134C45F2103203
:1048400045F21055BCF1410C07D0B94205D0914258
:1048500003D0A94201D0A14275D1082812D2DFE8C5
:1048600000F0110406080A0C0E1080230AE0402311
:1048700008E0C02306E0202304E0602302E0A02338
:1048800000E0E023A94202D14FF4585000E0362066
:10489000914205D0A94203D0A14201D043F00803C0
:1048A000B94201D143F00203194600F069FAB28817
:1048B000A2420AD098063088718802D5884202D375
:1048C00003E0884201D9318070802E48811CAA42C1
:1048D0007289028021D100230B80531C03800023A6
:1048E0000B80931C038033885B1E1C0A0C80D21C37
:1048F0000280DAB20A80B289028000230B80531C46
:10490000038000230B80931C038073885B1E1C0AAA
:104910000C80D21C0280D8B212E000220A800A80E9
:104920003288521E130A0B80D2B20A80B2890280EA
:104930000020088008807088401E020A0A80C0B2E9
:104940000880F0BDFFE7082812D2DFE800F0040677
:1049500008110A0C0E1030230AE0102308E020236F
:1049600006E0382304E0282302E0182300E00823AF
:10497000BDE8F040032043F4805100F001BA00008C
:10498000E4010020FE07006C2DE9F04F4E4F0B466E
:104990003A46BD880C0ADFF834B191895289A5F5F1
:1049A00013464FEA102C0BF1020A413E1DD0A5F52B
:1049B000A646103E19D03E46BE4696F8069036886A
:1049C000A5F5D047A6EB0008A8F10108043F17D0D1
:1049D000A5F5C857633F28D0A5F5AA477646103FEE
:1049E00051D0B9F1010F63D064E0ABF8002052461A
:1049F000AAF800C0C0B2AAF80000ABF800100FE09F
:104A0000B9F1010F01D11FFA88F0ABF80020050AB7
:104A10005246AAF80050C0B2AAF80000ABF8001045
:104A20001480D8B21080BDE8F08FB9F1000F1BD010
:104A3000ABF800205246AAF800C0C0B2AAF80000A5
:104A4000761E300AAAF80000F0B21080ABF8001011
:104A500011461480D8B21080BEF80200401E020A2F
:104A60000A80C0B20880DEE71FFA88F0ABF80020A9
:104A700000265246AAF80060AAF80060060AAAF8C2
:104A80000060C0B2E1E7ABF80020AAF800C0521CF9
:104A9000ABF80020C0B2AAF80000ABF80010AAF8EA
:104AA0000040491CABF80010D8B2AAF80000BAE7E1
:104AB0001FFA88F00146104600F062F9B089BDE89F
:104AC000F04F194600F05CB9E4010020FE07006CCD
:104AD0002DE9FC4F044691464844401E86B2C81852
:104AE000401E83B2009004EB0900401EC0F3072E65
:104AF000DFF850C100980D46C0F3072B6046BCF8A4
:104B000004204FEA112881894089A2F513474FEA12
:104B1000142A413F10D0A2F5A647103F0CD0A2F5B1
:104B2000D047043F08D09CF8067041F6631C0197FB
:104B3000012F13D1624511D1434F3880B81CA0F822
:104B400000A0E2B20280A0F800E0F2B20280398058
:104B5000A0F80080E9B2018059461CE0394F624557
:104B60003F881DD1A7EB0902121B374C009B92B264
:104B70009BB22080160AA01C0680D6B206804A444A
:104B8000521E160A0680D2B202802180A0F8008050
:104B9000E9B20180190A0180D9B20180BDE8FC8F19
:104BA000A2F5A04CBCF5A26C1FD0019801283FD003
:104BB000B04621462E4650204FF0510A4FF0520980
:104BC000532700F0DDF84146504600F0D9F8314651
:104BD000484600F0D5F81946384600F0D1F8294685
:104BE0002046BDE8FC4FFFF7CFBE174A1080971C48
:104BF000A7F800A000F1010CA2F800C0E4B23C80CC
:104C0000841C1480A7F800E0C01C1080F0B238802B
:104C10001180A7F80080481C1080E8B23880881CFA
:104C20001080A7F800B0C91C1180D8B23880B5E751
:104C3000B81B401E86B2381B9846401E294683B2D8
:104C4000B9E70000E4010020FE07006C2DE9F84FF1
:104C500082461F460C468B46580700D0012000EBC9
:104C6000D70079084843203AC0B202F0FF09002675
:104C7000009041E00C2F10D0102F12D0182F3ED1F1
:104C8000204909EBC90001EB80004FF00008855D69
:104C900028060AD51C4802880BE009EB49001B498D
:104CA000F1E71B4901EB0910EFE70A9828B916480C
:104CB000428821465046FCF7EBFC6806050E154875
:104CC000641CA4B24088A04219D9A4EB0B00B842DE
:104CD00009D10AF101001FFA80FA0E485C460188EA
:104CE00051450CD906E008F1010000F0FF08B8F1C9
:104CF000080FCDD3761CF6B200988642BAD3BDE831
:104D0000F88F000032DE000816000020CED3000825
:104D100042D80008E40100202DE9F84F044600F0D5
:104D2000FF0810190D46DDE90A761FFA80FA5819B6
:104D30001FFA80F94FF0000B11E0544502D3E81937
:104D4000444685B24D450FD23B4629462046CDF814
:104D500000B0FFF77BFF04EB570084B2761C32787B
:104D6000A2F120005E28E8D9BDE8F88F0248034987
:104D70000089088070470000E4010020FE07006CF5
:104D8000024A1080901C018070470000FE07006CF2
:104D900038B50121482000F0CBF92024ADF80040BF
:104DA00010208DF8030003200B4D8DF8020069469A
:104DB0002846FCF7F9F920212846FCF776FAADF8E9
:104DC0000040064C69462046FCF7EEF920212046BB
:104DD000FCF76BFA38BD0000000C014000180140E0
:104DE000FEE7704730B50F23C27801780125F2B194
:104DF000144A126801F1E02102F4E062C2F5E062B7
:104E0000120AC2F10404D3404278A24084781C40C4
:104E10001443220181F80024007800F01F018D4026
:104E20004009800000F1E020C0F8005130BD01F0E1
:104E30001F0085404809800000F1E020C0F8805143
:104E400030BD00000CED00E0024908430249086053
:104E5000704700000000FA050CED00E0F8B50024F2
:104E6000012140F23D1000F063F94FF48075ADF878
:104E7000005048268DF803600320424F8DF8020051
:104E800069463846FCF790F929463846FCF70DFA92
:104E90001820ADF800003C4F10258DF803506946EE
:104EA0003846FCF781F918213846FCF7FEF9FF2057
:104EB000ADF800008DF8036069463448FCF774F9DA
:104EC0004020ADF80000324E8DF803506946304660
:104ED000FCF76AF940213046FCF7E7F94FF4404609
:104EE000ADF800608DF803502A4D69462846FCF75E
:104EF0005BF931462846FCF7D8F901212648FCF732
:104F0000A1F900F06BF98021122000F09DFA08B1A0
:104F10000120F8BD322003F01DF81C2000F0F0F94C
:104F20004FF6FF7505EA00261D2000F0E9F940EA7A
:104F30000601A1F5FE40A23803D018A0FBF7BCF98A
:104F4000E6E70A2000F0DCF905EA00250B2000F076
:104F5000D7F940EA0501A1F5EE40213804D012A0AE
:104F6000FBF7AAF90220F8BD124D05EB4400417889
:104F700015F8140000F068FA641CA4B2412CF4D3B4
:104F80000020F8BD00080140000C01400010014065
:104F90000014014000200140000230004D49443A15
:104FA00025640D0A000000004849443A25640D0AB2
:104FB000000000008EEB00082DE9F0470C46054686
:104FC0004AB3C5F5207000EBD070C0F34F07C4F5AD
:104FD000F07000EBD070C0F34F060621122000F0F5
:104FE00033FA2321172000F02FFAA021182000F017
:104FF0002BFA0721192000F027FAF0211A2000F0DF
:1050000023FA0021322000F01FFAA021292000F00D
:105010001BFAF02128E0C5F5A07000EBD070C0F3BA
:105020004F07C4F1F00000EBD070C0F34F064621EB
:10503000122000F009FA3F21172000F005FA502154
:10504000182000F001FA0321192000F0FDF9782161
:105050001A2000F0F9F90021322000F0F5F9502172
:10506000292000F0F1F978212C2000F0EDF917202B
:1050700000F046F900EB9700C1B2172000F0E4F908
:10508000C5F387018A46182000F0DEF9192000F0E8
:1050900037F900EB5600C1B2192000F0D5F9C4F37E
:1050A000470189461A2000F0CFF9322000F028F994
:1050B0008046F007400E07F0030104F0010640EAC5
:1050C000011040EA860105F00304214341EA08018A
:1050D000322000F0B9F95146292000F0B5F94946CF
:1050E0002C2000F0B1F92A2000F00AF944EA080463
:1050F00044EA8601BDE8F0472A2000F0A5B97047D0
:10510000044A0029516901D0014300E08143516103
:105110007047000000100240044A0029D16901D004
:10512000014300E08143D16170470000001002405C
:10513000044A0029916901D0014300E08143916153
:10514000704700000010024030B5204A5168204BE3
:1051500011F00C0103D0042901D0082901D003600B
:1051600012E05168536801F470114FF0020413F417
:10517000803F04EB914102D053689B0301D5154B4E
:1051800000E0134B5943016051680F2303EA1111EA
:10519000114B5C5C0168E14041605468072505EAF9
:1051A00014241C5D21FA04F48460546805EAD424B4
:1051B0001B5DD940C1605268032303EA9232064B5B
:1051C0001B1F9A5CB1FBF2F1016130BD001002407F
:1051D00000127A0000093D004000002038B501218E
:1051E0004FF49070FFF7A4FF4FF40055ADF8005056
:1051F00048208DF803000320114C8DF80200694609
:105200002046FBF7D1FF29462046FCF74EF8082040
:10521000ADF8000010200B4D8DF8030069462846BC
:10522000FBF7C2FF08212846FCF73FF8606820F42E
:1052300070006060606840F44010606038BD00003D
:10524000002001400014014070B5322002F09CFEA5
:105250000C4D0120C5F8B4010B4EC6F88C0132206C
:1052600005F5DA7506F5C67602F08EFE0024346088
:10527000322002F089FE2C60BDE87040322002F03E
:1052800083BE000000002442008022422DE9F04746
:10529000184F0024786820F470007860786840F433
:1052A00000007860DFF85090144E08254FF0010898
:1052B000A246322002F068FEC6F88C816006040E19
:1052C000D9F8340108B1641CE4B2322002F05CFE6B
:1052D000C6F88CA16D1E15F0FF05EAD1786820F4A0
:1052E00070007860786840F4401078602046BDE82F
:1052F000F08700000020014000002442008022428C
:1053000010B5044600F022F8422000F055F8642061
:1053100002F03AFE204600F04FF8642002F034FE1E
:1053200000F02EF8642002F02FFE00F00FF843206A
:1053300000F042F8642002F027FEFFF7A7FF0446C2
:10534000FFF782FF00F01CF8204610BD70B50A4E32
:105350000120C6F8B401094DC5F88C01322005F5CD
:10536000C67506F5DA7602F00FFE002434603220AE
:1053700002F00AFE2C6070BD000024420080224230
:1053800070B50B4C0020C4F8B401322004F5DA7477
:1053900002F0FAFD07480125C0F88C51322002F0D6
:1053A000F3FD2560BDE87040322002F0EDBD000045
:1053B00000002442008022422DE9F04700241F4EC5
:1053C0001F4F0546A0464FF00109280601D5484663
:1053D00000E04046C6F8B4016806050E322002F02F
:1053E000D3FDC7F88C91322002F0CEFDC7F88C8136
:1053F000641CE4B2082CE8D3124C606820F47000FE
:105400006060606840F400006060322002F0BCFD23
:10541000C7F88C91322002F0B7FDD6F8340100B104
:105420000120C7F88C81616821F4700161606168B6
:1054300041F440116160BDE8F087000000002442A3
:10544000008022420020014070B50D46064600242F
:10545000FFF77CFF4220FFF7AFFF00B1012464207B
:1054600002F092FD3046FFF7A7FF00B1012464204F
:1054700002F08AFD2846FFF79FFF00B10124FFF7E5
:105480007FFF204670BD00002DE9FC4100260096FC
:105490003546019600B102251B484069800102D5BE
:1054A0000E20BDE8FC81194C6946208980B2FBF7CB
:1054B000CBFD0028F5D10198400322D52089144C5A
:1054C00000044FF0400820603720C4E901084FF481
:1054D00080672046C4E9036700F090F83720FBF7A7
:1054E000E3FA0028DDD10620C4F80880C4E90050A2
:1054F000C4E90367204600F081F80620FBF7D4FAE0
:10550000CFE72520CDE70000008001401C000020EF
:10551000101200200149886370470000008001409C
:105520000149C1F8A000704700003042034A5168A9
:1055300021F0FF01014351607047000000800140ED
:1055400001490860704700008C05304210B50949D8
:1055500002684A6242688A62CA6AD0E90234234316
:10556000D0E90440044322F0F70223431343CB6203
:1055700010BD00000080014006480021016041602C
:105580008160C16041628162C162034A8263C1631A
:105590007047000000800140FF07C000034A014639
:1055A0000020526B0A4200D0012070470080014069
:1055B0000248006800F003007047000000800140CE
:1055C00000F06CBB30B5094B5A6847F6FF618A435F
:1055D000017D8468C568214344682C4321430468E5
:1055E0000069214301431143596030BD00800140EF
:1055F0000148D0F8800070470080014010B508498C
:1056000002688A60CA68D0E901342343D0E90340C4
:1056100004436FF30A0223431343CB6010BD000021
:105620000080014004490A6822F003020A600A6807
:1056300002430A6070470000008001400149C1F840
:105640008000704700800140F0B50F4604468BB0E3
:10565000154601210220FFF753FD114E3046FBF79E
:10566000EDFA00213046FBF7DDFA0E4880218DE887
:105670003100B80803900020CDE9040189000691AB
:105680008900CDE907108900CDE909106946304647
:10569000FBF746FB00213046FBF7C4FA0BB0F0BD28
:1056A000440402408080014010B5104904460020A7
:1056B0000978032906D019B1012901D0022902D1A4
:1056C000022C01D3272010BDE0B2FFF7DDFE002839
:1056D000F9D107494A6822F4C0524A604A68A3B225
:1056E00042EAC3224A604A684A6010BD1C0000209A
:1056F000008001402DE9F0478249DFF80CA24FF00D
:10570000000C0B7880F856300989A0F85410DAF8AC
:1057100000104FF001090A0E95090570C2F38305C8
:10572000457002F0030282700A0CC2700A0A02710C
:105730004171DAF80420110E0C01C2F3074144EA6A
:10574000111401F00F08C480C2F3072180F808800B
:10575000CC094472C1F380148472C1F34014C47242
:10576000C1F300140473544680F80DC0A468260EDB
:10577000C4F30745C4F3072733B1012B04D0032B2F
:1057800002D0022B30D03EE08907090DD2B241EAA7
:10579000820141EA9612C6F3C2010261017506F068
:1057A0000701417569098175C5F38201C175A907B2
:1057B0004B0F394643EAD1150576AD1C09FA05F3BE
:1057C000DE17521CA2FB03570CFB037302FB0633CC
:1057D00009FA08F2A5FB0267026503FB027205FBEA
:1057E0000C22C0E912620EE09106890A41EA062203
:1057F0002A430261521C530BD204C0E912234FF416
:10580000007239460265C1F38012427689064A0E5B
:10581000E1B242EAD11200F81A2F01F07F01417083
:10582000DAF80C20110ECB098370C1F34113C37059
:10583000C1F38203037189070B0FC2F3074143EAE7
:1058400091134371C1F34013837180F807C001F0D5
:1058500001010172C2F30721CB094372C1F3801326
:105860008372C1F34013C372C1F300130373C1F316
:105870008103437301F003018173C2F34601224A9D
:10588000C173103280F8109011684B460C0E84746E
:105890000C0CC1F3072545EA042484820C065168E8
:1058A0000D0E44EA0544C1F3074544EA0524C1F35B
:1058B00007252C43C0F8164000F81A1F91680C0EFB
:1058C00044700C0CC1F30725240644EA0544C9B210
:1058D00044EA0124D16844EA1164C1F307424460F8
:1058E000047A44EA12140472C1F30724120744EA4A
:1058F00012524281C1F34601017343736046BDE811
:10590000F08700001C0000203C1200207CB5012123
:105910003020FFF70DFC012140F20240FFF7F0FBC1
:105920004FF4F850ADF8000018258DF8035003240B
:105930008DF8024069462948FBF736FC0420ADF893
:1059400000008DF80350264D8DF802406946284628
:10595000FBF72AFC8021ADF8001048208DF80300E9
:105960008DF8024069462846FBF71EFCFFF704FE4F
:1059700031208DF8040000208DF805008DF8060018
:1059800001208DF8070001A8FFF72CFA00F0B8F805
:10599000144C80B900F02AF868B92046FFF7AAFE37
:1059A00048B9B4F85400000400F054FC18B90120C0
:1059B000FFF77AFE18B10C49097803290AD194F847
:1059C000560040B1012806D00420FFF7AFFD0020AB
:1059D00000F056FC7CBD0A20F7E7000000100140F3
:1059E00000140140601200201C0000202DE9F84F37
:1059F0000120ADF80000FFF7DBFD88B3DFF8F4907D
:105A000099F80000042872D03B4C02204FF0C00BE4
:105A10000025C4F808B0C4E900504602C4E90356A2
:105A20002046FFF7EBFDFBF767F800281AD1334F4C
:105A3000796904F13C000160B9694160F9698160EC
:105A4000396AC16099F800004FF0030A4FF040082E
:105A500050B1012808D0062806D0022804D012E050
:105A6000FFE72520BDE8F88FC4F80880C4E9005A94
:105A7000C4E903562048FFF7C1FD69460320FBF740
:105A800077F80028EED199F8000003280FD1BDF86F
:105A90000000C4F808800004C4E9000AC4E9035601
:105AA0001548FFF7ABFDFBF727F80028DAD199F886
:105AB000000004281BD0BDF80000C9F8080000044D
:105AC00020600920C4E9010BC4E903560A48FFF726
:105AD00095FDFBF711F80028C4D1796906482C30F0
